:100000000C942A000C941F010C94DD000C94340015
:100010000C9434000C9434000C9434000C94340090
:100020000C9434000C9434000C9434000C94340080
:100030000C9434000C9434000C9434000C94340070
:100040000C9434000C9434000C9434000C94340060
:100050000C94340011241FBECFE5D8E0DEBFCDBF25
:100060000E94D6000C9461010C94000095B39F701F
:10007000282F207F922B95BB95B39D7F95BB95B381
:100080009B7F95BB95B3986095BB000095B3977F18
:1000900095BB32E43A95F1F700C025B330E1839F78
:1000A000C0011124922F9F70892B85BB85B3886076
:1000B00085BB000085B3877F85BB89EF90E0019702
:1000C000F1F700C00000089584B3826084BB84B35C
:1000D000846084BB84B3886084BB84B3886084BB41
:1000E00084B3826084BB84B3846084BB82E00E945A
:1000F000360088E20E9436008CE00E94360086E0DE
:100100000E94360081E00E94360087E893E1019763
:10011000F1F700C00000089595B39F70282F207F4D
:10012000922B95BB95B3926095BB95B39B7F95BB86
:1001300095B3986095BB000095B3977F95BB32E46B
:100140003A95F1F700C025B330E1839FC001112437
:10015000922F9F70892B85BB85B3886085BB00007B
:1001600085B3877F85BB89EF90E00197F1F700C0E9
:100170000000089581B3877F81BB85B7886085BF04
:1001800085B7846085BF8BB780688BBF78940895EE
:1001900081B38B7F81BB85B7826085BF85B7816066
:1001A00085BF8BB780648BBF789408950E946400EC
:1001B0000E94BA000E94C800FBCF1F920F920FB698
:1001C0000F9211242F933F934F935F936F937F93DD
:1001D0008F939F93AF93BF93CF93DF93EF93FF934F
:1001E00081E00E94360089EF90E00197F1F700C0AE
:1001F0000000C0E3D0E00DC09FE32DE083E091500C
:1002000020408040E1F700C000008C2F0E948C004D
:100210002196CA33D10584F3FF91EF91DF91CF91FD
:10022000BF91AF919F918F917F916F915F914F910E
:100230003F912F910F900FBE0F901F9018951F9216
:100240000F920FB60F9211242F933F934F935F930A
:100250006F937F938F939F93AF93BF93CF93DF93CE
:10026000EF93FF9381E00E94360089EF90E00197C1
:10027000F1F700C00000C9E3D0E00DC09FE32DE01E
:1002800083E0915020408040E1F700C000008C2FB7
:100290000E948C002197C033D10584F7FF91EF9124
:1002A000DF91CF91BF91AF919F918F917F916F918E
:1002B0005F914F913F912F910F900FBE0F901F9024
:0602C0001895F894FFCF31
:00000001FF
