S0160000476C6F76655F466F725F446561662E73726563BC
S11300000C942A000C9447000C9447000C9447006D
S11300100C9447000C9447000C9447000C94470040
S11300200C9447000C9447000C9447000C94470030
S11300300C9447000C9447000C9447000C94470020
S11300400C9447000C9447000C9447000C94470010
S11300500C94470011241FBECFE5D8E0DEBFCDBF0E
S113006010E0A0E6B0E0E4E3F4E002C005900D92F5
S1130070A23CB107D9F720E0A2ECB0E001C01D9288
S1130080A53EB207E1F70E94DE000C9418020C941E
S1130090000087B1806487B986B1806886B986B16B
S11300A0846086B986B1806486B9089597B1907FDB
S11300B097B997B1892B87B986B1806486B9349B87
S11300C0FECF83E08A95F1F7000024B185B190E07A
S11300D0982F8827820F911D08958AB38E7F8ABB3B
S11300E08AB38D7F8ABB8AB38B7F8ABB8AB3877FAF
S11300F08ABB8AB38F7E8ABB089585BB82B38D7F0A
S113010082BB82B38B7F82BB82B3886082BB0000D8
S113011082B3877F82BB8DEE92E00197F1F700C036
S11301200000089585BB82B3826082BB82B38B7F5B
S113013082BB82B3886082BB000082B3877F82BBAC
S113014089EF90E00197F1F700C0000008958FEF68
S113015084BB81B3886081BB81B3826081BB81B37E
S1130160846081BB87E893E10197F1F700C0000048
S113017088E30E947D008CE00E947D0086E00E945E
S11301807D0081E00E947D0080E80E947D0008954A
S11301900F931F93CF93DF938C01C0E0D0E003C093
S11301A00E9492002196F801EC0FFD1F80818111BD
S11301B0F7CFDF91CF911F910F9108950E946D00A9
S11301C00E94A7000E94490088E30E947D0080E00D
S11301D00E9456005C0181E00E9456006C0182E09E
S11301E00E9456007C0183E00E9456008C0184E04A
S11301F00E945600EC014AE050E06DEC70E0C5014D
S11302000E94D8014AE050E06BED70E0C6010E9404
S1130210D8014AE050E068EC70E0C7010E94D801C0
S11302204AE050E060EE70E0C8010E94D8014AE064
S113023050E064ED70E0CE010E94D80160E670E009
S11302408DEC90E00E94CF01EC0160E670E08BED54
S113025090E00E94CF018C0160E670E088EC90E0B1
S11302600E94CF017C0160E670E080EE90E00E9485
S1130270CF016C0160E670E084ED90E00E94CF0154
S11302802097A1F0009791F40115110579F4E11478
S1130290F10461F0C114D10449F082E690E00E94B7
S11302A0C8008FEB90E00E94C8008ECF2097A1F485
S11302B0009791F40115110579F4E114F10461F04A
S11302C0C114D10449F083E790E00E94C8008FEB89
S11302D090E00E94C80078CF2097A1F4009791F491
S11302E00115110579F0E114F10461F01C141D04E9
S11302F04CF48FE790E00E94C8008FEB90E00E94DE
S1130300C80062CF1C161D06ACF41816190694F426
S11303100115110579F41E141F0464F41C141D0442
S11303204CF480E990E00E94C8008FEB90E00E94BA
S1130330C8004ACF2097A9F41816190694F4101689
S113034011067CF41E141F0464F41C141D044CF4E4
S113035089E990E00E94C8008FEB90E00E94C800F9
S113036033CFCD2B99F01816190684F4012B71F0B4
S1130370EF2861F01C141D044CF482EA90E00E9402
S1130380C8008FEB90E00E94C8001ECF84EB90E081
S11303900E94C8008FEB90E00E94C80015CFFB01BB
S11303A0DC018D91019080190110D9F3990B089506
S11303B04532510520F4423010F00C94E301FB0166
S11303C01082CB010895BB274A3031F4992322F4DB
S11303D0BDE2909581959F4F0C94EF01BB27FB01E3
S11303E05527AA27880F991FAA1FA41710F0A41B2A
S11303F083955051B9F7A05DAA3308F0A95DA19384
S1130400009779F7B111B1931192CB010C940802C2
S1130410DC01FC01672F71917723E1F7329704C067
S11304207C916D9370836291AE17BF07C8F30895F2
S1070430F894FFCF6A
S113043430002054686174277320416D617A696EB9
S11304446720002049204C6F766520596F7500524F
S113045465616C6C7921494C6F766520596F750020
S11304644865792120596F7500476F6F64204A6F7E
S1130474620049276D205761746368696E67205967
S11304846F752E00204E4F2052454144494E47205B
S1050494000062
S9030000FC
